8=FIX.4.4|9=68|35=A|34=1|49=1001|52=20250530-05:28:50.748|56=SPOT|98=0|108=5|141=Y|10=019|8=FIX.4.4|9=111|35=3|34=2|49=1001|52=20250530-05:28:55.622|56=SPOT|45=2|58=Required tag missing, field=146|371=146|372=R|373=1|10=030|8=FIX.4.4|9=60|35=1|34=3|49=1001|52=20250530-05:28:58.706|56=SPOT|112=TEST|10=249|8=FIX.4.4|9=111|35=3|34=4|49=1001|52=20250530-05:29:00.615|56=SPOT|45=4|58=Required tag missing, field=146|371=146|372=R|373=1|10=027|8=FIX.4.4|9=111|35=3|34=5|49=1001|52=20250530-05:29:05.617|56=SPOT|45=5|58=Required tag missing, field=146|371=146|372=R|373=1|10=036|8=FIX.4.4|9=60|35=1|34=6|49=1001|52=20250530-05:29:06.705|56=SPOT|112=TEST|10=245|