8=FIX.4.4|9=68|35=A|34=1|49=SPOT|52=20250530-05:28:50.808|56=1001|98=0|108=5|141=Y|10=016|8=FIX.4.4|9=75|35=R|34=2|49=SPOT|52=20250530-05:28:55.616|56=1001|58=*** SERVER HELLO ***|10=092|8=FIX.4.4|9=60|35=0|34=3|49=SPOT|52=20250530-05:28:58.709|56=1001|112=TEST|10=251|8=FIX.4.4|9=75|35=R|34=4|49=SPOT|52=20250530-05:29:00.614|56=1001|58=*** SERVER HELLO ***|10=083|8=FIX.4.4|9=75|35=R|34=5|49=SPOT|52=20250530-05:29:05.614|56=1001|58=*** SERVER HELLO ***|10=089|8=FIX.4.4|9=60|35=0|34=6|49=SPOT|52=20250530-05:29:06.708|56=1001|112=TEST|10=247|