8=FIX.4.4|9=68|35=A|34=1|49=1001|52=20250529-12:01:28.081|56=SPOT|98=0|108=5|141=Y|10=011|
8=FIX.4.4|9=68|35=A|34=1|49=SPOT|52=20250529-12:01:28.130|56=1001|98=0|108=5|141=Y|10=006|
8=FIX.4.4|9=75|35=R|34=2|49=SPOT|52=20250529-12:01:32.763|56=1001|58=*** SERVER HELLO ***|10=087|
8=FIX.4.4|9=111|35=3|34=2|49=1001|52=20250529-12:01:32.769|56=SPOT|45=2|58=Required tag missing, field=146|371=146|372=R|373=1|10=034|
8=FIX.4.4|9=60|35=1|34=3|49=1001|52=20250529-12:01:36.076|56=SPOT|112=TEST|10=242|
8=FIX.4.4|9=60|35=0|34=3|49=SPOT|52=20250529-12:01:36.079|56=1001|112=TEST|10=244|
8=FIX.4.4|9=75|35=R|34=4|49=SPOT|52=20250529-12:01:37.761|56=1001|58=*** SERVER HELLO ***|10=092|
8=FIX.4.4|9=111|35=3|34=4|49=1001|52=20250529-12:01:37.763|56=SPOT|45=4|58=Required tag missing, field=146|371=146|372=R|373=1|10=037|
8=FIX.4.4|9=75|35=R|34=5|49=SPOT|52=20250529-12:01:42.761|56=1001|58=*** SERVER HELLO ***|10=089|
8=FIX.4.4|9=111|35=3|34=5|49=1001|52=20250529-12:01:42.763|56=SPOT|45=5|58=Required tag missing, field=146|371=146|372=R|373=1|10=035|
8=FIX.4.4|9=60|35=1|34=6|49=1001|52=20250529-12:01:44.075|56=SPOT|112=TEST|10=243|
8=FIX.4.4|9=60|35=0|34=6|49=SPOT|52=20250529-12:01:44.078|56=1001|112=TEST|10=245|
8=FIX.4.4|9=75|35=R|34=7|49=SPOT|52=20250529-12:01:47.761|56=1001|58=*** SERVER HELLO ***|10=096|
8=FIX.4.4|9=111|35=3|34=7|49=1001|52=20250529-12:01:47.763|56=SPOT|45=7|58=Required tag missing, field=146|371=146|372=R|373=1|10=044|
8=FIX.4.4|9=60|35=1|34=8|49=1001|52=20250529-12:01:52.075|56=SPOT|112=TEST|10=244|
8=FIX.4.4|9=60|35=0|34=8|49=SPOT|52=20250529-12:01:52.077|56=1001|112=TEST|10=245|
8=FIX.4.4|9=75|35=R|34=9|49=SPOT|52=20250529-12:01:52.761|56=1001|58=*** SERVER HELLO ***|10=094|
8=FIX.4.4|9=111|35=3|34=9|49=1001|52=20250529-12:01:52.766|56=SPOT|45=9|58=Required tag missing, field=146|371=146|372=R|373=1|10=047|
8=FIX.4.4|9=68|35=A|34=1|49=1001|52=20250529-12:44:53.990|56=SPOT|98=0|108=5|141=Y|10=025|
8=FIX.4.4|9=68|35=A|34=1|49=SPOT|52=20250529-12:44:54.040|56=1001|98=0|108=5|141=Y|10=012|
8=FIX.4.4|9=75|35=R|34=2|49=SPOT|52=20250529-12:44:57.578|56=1001|58=*** SERVER HELLO ***|10=105|
8=FIX.4.4|9=111|35=3|34=2|49=1001|52=20250529-12:44:57.581|56=SPOT|45=2|58=Required tag missing, field=146|371=146|372=R|373=1|10=040|
8=FIX.4.4|9=60|35=1|34=3|49=1001|52=20250529-12:45:01.983|56=SPOT|112=TEST|10=249|
8=FIX.4.4|9=60|35=0|34=3|49=SPOT|52=20250529-12:45:01.985|56=1001|112=TEST|10=250|
8=FIX.4.4|9=75|35=R|34=4|49=SPOT|52=20250529-12:45:02.577|56=1001|58=*** SERVER HELLO ***|10=097|
8=FIX.4.4|9=111|35=3|34=4|49=1001|52=20250529-12:45:02.580|56=SPOT|45=4|58=Required tag missing, field=146|371=146|372=R|373=1|10=034|
8=FIX.4.4|9=75|35=R|34=5|49=SPOT|52=20250529-12:45:07.577|56=1001|58=*** SERVER HELLO ***|10=103|
8=FIX.4.4|9=111|35=3|34=5|49=1001|52=20250529-12:45:07.578|56=SPOT|45=5|58=Required tag missing, field=146|371=146|372=R|373=1|10=048|
8=FIX.4.4|9=60|35=1|34=6|49=1001|52=20250529-12:45:09.983|56=SPOT|112=TEST|10=004|
8=FIX.4.4|9=60|35=0|34=6|49=SPOT|52=20250529-12:45:09.985|56=1001|112=TEST|10=005|
8=FIX.4.4|9=75|35=R|34=7|49=SPOT|52=20250529-12:45:12.577|56=1001|58=*** SERVER HELLO ***|10=101|
8=FIX.4.4|9=111|35=3|34=7|49=1001|52=20250529-12:45:12.581|56=SPOT|45=7|58=Required tag missing, field=146|371=146|372=R|373=1|10=042|
8=FIX.4.4|9=75|35=R|34=8|49=SPOT|52=20250529-12:45:17.577|56=1001|58=*** SERVER HELLO ***|10=107|
8=FIX.4.4|9=111|35=3|34=8|49=1001|52=20250529-12:45:17.607|56=SPOT|45=8|58=Required tag missing, field=146|371=146|372=R|373=1|10=048|
8=FIX.4.4|9=60|35=1|34=9|49=1001|52=20250529-12:45:17.608|56=SPOT|112=TEST|10=000|
8=FIX.4.4|9=60|35=0|34=9|49=SPOT|52=20250529-12:45:17.609|56=1001|112=TEST|10=000|
8=FIX.4.4|9=76|35=R|34=10|49=SPOT|52=20250529-12:45:22.577|56=1001|58=*** SERVER HELLO ***|10=145|
8=FIX.4.4|9=113|35=3|34=10|49=1001|52=20250529-12:45:22.607|56=SPOT|45=10|58=Required tag missing, field=146|371=146|372=R|373=1|10=128|
8=FIX.4.4|9=61|35=1|34=11|49=1001|52=20250529-12:45:25.983|56=SPOT|112=TEST|10=047|
8=FIX.4.4|9=61|35=0|34=11|49=SPOT|52=20250529-12:45:25.986|56=1001|112=TEST|10=049|
8=FIX.4.4|9=76|35=R|34=12|49=SPOT|52=20250529-12:45:27.577|56=1001|58=*** SERVER HELLO ***|10=152|
8=FIX.4.4|9=113|35=3|34=12|49=1001|52=20250529-12:45:27.607|56=SPOT|45=12|58=Required tag missing, field=146|371=146|372=R|373=1|10=137|
8=FIX.4.4|9=76|35=R|34=13|49=SPOT|52=20250529-12:45:32.577|56=1001|58=*** SERVER HELLO ***|10=149|
8=FIX.4.4|9=113|35=3|34=13|49=1001|52=20250529-12:45:32.607|56=SPOT|45=13|58=Required tag missing, field=146|371=146|372=R|373=1|10=135|
8=FIX.4.4|9=61|35=1|34=14|49=1001|52=20250529-12:45:33.983|56=SPOT|112=TEST|10=049|
8=FIX.4.4|9=61|35=0|34=14|49=SPOT|52=20250529-12:45:33.986|56=1001|112=TEST|10=051|
8=FIX.4.4|9=76|35=R|34=15|49=SPOT|52=20250529-12:45:37.577|56=1001|58=*** SERVER HELLO ***|10=156|
8=FIX.4.4|9=113|35=3|34=15|49=1001|52=20250529-12:45:37.581|56=SPOT|45=15|58=Required tag missing, field=146|371=146|372=R|373=1|10=145|
8=FIX.4.4|9=61|35=1|34=16|49=1001|52=20250529-12:45:41.983|56=SPOT|112=TEST|10=050|
8=FIX.4.4|9=61|35=0|34=16|49=SPOT|52=20250529-12:45:41.985|56=1001|112=TEST|10=051|
8=FIX.4.4|9=76|35=R|34=17|49=SPOT|52=20250529-12:45:42.577|56=1001|58=*** SERVER HELLO ***|10=154|
8=FIX.4.4|9=113|35=3|34=17|49=1001|52=20250529-12:45:42.607|56=SPOT|45=17|58=Required tag missing, field=146|371=146|372=R|373=1|10=144|
8=FIX.4.4|9=76|35=R|34=18|49=SPOT|52=20250529-12:45:47.577|56=1001|58=*** SERVER HELLO ***|10=160|
8=FIX.4.4|9=113|35=3|34=18|49=1001|52=20250529-12:45:47.607|56=SPOT|45=18|58=Required tag missing, field=146|371=146|372=R|373=1|10=151|
8=FIX.4.4|9=61|35=1|34=19|49=1001|52=20250529-12:45:49.983|56=SPOT|112=TEST|10=061|
8=FIX.4.4|9=61|35=0|34=19|49=SPOT|52=20250529-12:45:49.986|56=1001|112=TEST|10=063|
8=FIX.4.4|9=76|35=R|34=20|49=SPOT|52=20250529-12:45:52.577|56=1001|58=*** SERVER HELLO ***|10=149|
8=FIX.4.4|9=113|35=3|34=20|49=1001|52=20250529-12:45:52.582|56=SPOT|45=20|58=Required tag missing, field=146|371=146|372=R|373=1|10=135|
8=FIX.4.4|9=76|35=R|34=21|49=SPOT|52=20250529-12:45:57.577|56=1001|58=*** SERVER HELLO ***|10=155|
8=FIX.4.4|9=113|35=3|34=21|49=1001|52=20250529-12:45:57.607|56=SPOT|45=21|58=Required tag missing, field=146|371=146|372=R|373=1|10=140|
8=FIX.4.4|9=61|35=1|34=22|49=1001|52=20250529-12:45:57.608|56=SPOT|112=TEST|10=048|
8=FIX.4.4|9=61|35=0|34=22|49=SPOT|52=20250529-12:45:57.609|56=1001|112=TEST|10=048|
8=FIX.4.4|9=76|35=R|34=23|49=SPOT|52=20250529-12:46:02.577|56=1001|58=*** SERVER HELLO ***|10=148|
8=FIX.4.4|9=113|35=3|34=23|49=1001|52=20250529-12:46:02.607|56=SPOT|45=23|58=Required tag missing, field=146|371=146|372=R|373=1|10=135|
8=FIX.4.4|9=61|35=1|34=24|49=1001|52=20250529-12:46:05.983|56=SPOT|112=TEST|10=050|
8=FIX.4.4|9=61|35=0|34=24|49=SPOT|52=20250529-12:46:05.984|56=1001|112=TEST|10=050|
8=FIX.4.4|9=76|35=R|34=25|49=SPOT|52=20250529-12:46:07.577|56=1001|58=*** SERVER HELLO ***|10=155|
8=FIX.4.4|9=113|35=3|34=25|49=1001|52=20250529-12:46:07.581|56=SPOT|45=25|58=Required tag missing, field=146|371=146|372=R|373=1|10=145|
8=FIX.4.4|9=76|35=R|34=26|49=SPOT|52=20250529-12:46:12.577|56=1001|58=*** SERVER HELLO ***|10=152|
8=FIX.4.4|9=113|35=3|34=26|49=1001|52=20250529-12:46:12.607|56=SPOT|45=26|58=Required tag missing, field=146|371=146|372=R|373=1|10=142|
8=FIX.4.4|9=61|35=1|34=27|49=1001|52=20250529-12:46:13.983|56=SPOT|112=TEST|10=052|
8=FIX.4.4|9=61|35=0|34=27|49=SPOT|52=20250529-12:46:13.984|56=1001|112=TEST|10=052|
8=FIX.4.4|9=76|35=R|34=28|49=SPOT|52=20250529-12:46:17.577|56=1001|58=*** SERVER HELLO ***|10=159|
8=FIX.4.4|9=113|35=3|34=28|49=1001|52=20250529-12:46:17.607|56=SPOT|45=28|58=Required tag missing, field=146|371=146|372=R|373=1|10=151|
8=FIX.4.4|9=61|35=1|34=29|49=1001|52=20250529-12:46:21.983|56=SPOT|112=TEST|10=053|
8=FIX.4.4|9=61|35=0|34=29|49=SPOT|52=20250529-12:46:21.984|56=1001|112=TEST|10=053|
8=FIX.4.4|9=76|35=R|34=30|49=SPOT|52=20250529-12:46:22.577|56=1001|58=*** SERVER HELLO ***|10=148|
8=FIX.4.4|9=113|35=3|34=30|49=1001|52=20250529-12:46:22.607|56=SPOT|45=30|58=Required tag missing, field=146|371=146|372=R|373=1|10=133|
8=FIX.4.4|9=76|35=R|34=31|49=SPOT|52=20250529-12:46:27.577|56=1001|58=*** SERVER HELLO ***|10=154|
8=FIX.4.4|9=113|35=3|34=31|49=1001|52=20250529-12:46:27.581|56=SPOT|45=31|58=Required tag missing, field=146|371=146|372=R|373=1|10=141|
8=FIX.4.4|9=61|35=1|34=32|49=1001|52=20250529-12:46:29.983|56=SPOT|112=TEST|10=055|
8=FIX.4.4|9=61|35=0|34=32|49=SPOT|52=20250529-12:46:29.984|56=1001|112=TEST|10=055|
8=FIX.4.4|9=76|35=R|34=33|49=SPOT|52=20250529-12:46:32.577|56=1001|58=*** SERVER HELLO ***|10=152|
8=FIX.4.4|9=113|35=3|34=33|49=1001|52=20250529-12:46:32.607|56=SPOT|45=33|58=Required tag missing, field=146|371=146|372=R|373=1|10=140|
8=FIX.4.4|9=68|35=A|34=1|49=1001|52=20250530-04:46:41.968|56=SPOT|98=0|108=5|141=Y|10=022|
8=FIX.4.4|9=68|35=A|34=1|49=SPOT|52=20250530-04:46:42.026|56=1001|98=0|108=5|141=Y|10=008|
8=FIX.4.4|9=75|35=R|34=2|49=SPOT|52=20250530-04:46:44.067|56=1001|58=*** SERVER HELLO ***|10=089|
8=FIX.4.4|9=111|35=3|34=2|49=1001|52=20250530-04:46:44.073|56=SPOT|45=2|58=Required tag missing, field=146|371=146|372=R|373=1|10=027|
8=FIX.4.4|9=75|35=R|34=3|49=SPOT|52=20250530-04:46:49.061|56=1001|58=*** SERVER HELLO ***|10=089|
8=FIX.4.4|9=111|35=3|34=3|49=1001|52=20250530-04:46:49.063|56=SPOT|45=3|58=Required tag missing, field=146|371=146|372=R|373=1|10=033|
8=FIX.4.4|9=60|35=1|34=4|49=1001|52=20250530-04:46:49.954|56=SPOT|112=TEST|10=254|
8=FIX.4.4|9=60|35=0|34=4|49=SPOT|52=20250530-04:46:49.958|56=1001|112=TEST|10=001|
8=FIX.4.4|9=75|35=R|34=5|49=SPOT|52=20250530-04:46:54.061|56=1001|58=*** SERVER HELLO ***|10=087|
8=FIX.4.4|9=111|35=3|34=5|49=1001|52=20250530-04:46:54.064|56=SPOT|45=5|58=Required tag missing, field=146|371=146|372=R|373=1|10=034|
8=FIX.4.4|9=60|35=1|34=6|49=1001|52=20250530-04:46:57.953|56=SPOT|112=TEST|10=254|
8=FIX.4.4|9=60|35=0|34=6|49=SPOT|52=20250530-04:46:57.956|56=1001|112=TEST|10=000|
8=FIX.4.4|9=75|35=R|34=7|49=SPOT|52=20250530-04:46:59.061|56=1001|58=*** SERVER HELLO ***|10=094|
8=FIX.4.4|9=111|35=3|34=7|49=1001|52=20250530-04:46:59.065|56=SPOT|45=7|58=Required tag missing, field=146|371=146|372=R|373=1|10=044|
8=FIX.4.4|9=75|35=R|34=8|49=SPOT|52=20250530-04:47:04.061|56=1001|58=*** SERVER HELLO ***|10=086|
8=FIX.4.4|9=111|35=3|34=8|49=1001|52=20250530-04:47:04.092|56=SPOT|45=8|58=Required tag missing, field=146|371=146|372=R|373=1|10=037|
8=FIX.4.4|9=60|35=1|34=9|49=1001|52=20250530-04:47:05.953|56=SPOT|112=TEST|10=251|
8=FIX.4.4|9=60|35=0|34=9|49=SPOT|52=20250530-04:47:05.956|56=1001|112=TEST|10=253|
8=FIX.4.4|9=76|35=R|34=10|49=SPOT|52=20250530-04:47:09.061|56=1001|58=*** SERVER HELLO ***|10=133|
8=FIX.4.4|9=113|35=3|34=10|49=1001|52=20250530-04:47:09.092|56=SPOT|45=10|58=Required tag missing, field=146|371=146|372=R|373=1|10=126|
8=FIX.4.4|9=61|35=1|34=11|49=1001|52=20250530-04:47:13.953|56=SPOT|112=TEST|10=036|
8=FIX.4.4|9=61|35=0|34=11|49=SPOT|52=20250530-04:47:13.956|56=1001|112=TEST|10=038|
8=FIX.4.4|9=76|35=R|34=12|49=SPOT|52=20250530-04:47:14.061|56=1001|58=*** SERVER HELLO ***|10=131|
8=FIX.4.4|9=113|35=3|34=12|49=1001|52=20250530-04:47:14.091|56=SPOT|45=12|58=Required tag missing, field=146|371=146|372=R|373=1|10=125|
8=FIX.4.4|9=76|35=R|34=13|49=SPOT|52=20250530-04:47:19.062|56=1001|58=*** SERVER HELLO ***|10=138|
8=FIX.4.4|9=113|35=3|34=13|49=1001|52=20250530-04:47:19.064|56=SPOT|45=13|58=Required tag missing, field=146|371=146|372=R|373=1|10=132|
8=FIX.4.4|9=61|35=1|34=14|49=1001|52=20250530-04:47:21.952|56=SPOT|112=TEST|10=037|
8=FIX.4.4|9=61|35=0|34=14|49=SPOT|52=20250530-04:47:21.954|56=1001|112=TEST|10=038|
8=FIX.4.4|9=76|35=R|34=15|49=SPOT|52=20250530-04:47:24.061|56=1001|58=*** SERVER HELLO ***|10=135|
8=FIX.4.4|9=113|35=3|34=15|49=1001|52=20250530-04:47:24.092|56=SPOT|45=15|58=Required tag missing, field=146|371=146|372=R|373=1|10=133|
8=FIX.4.4|9=76|35=R|34=16|49=SPOT|52=20250530-04:47:29.062|56=1001|58=*** SERVER HELLO ***|10=142|
8=FIX.4.4|9=113|35=3|34=16|49=1001|52=20250530-04:47:29.092|56=SPOT|45=16|58=Required tag missing, field=146|371=146|372=R|373=1|10=140|
8=FIX.4.4|9=61|35=1|34=17|49=1001|52=20250530-04:47:29.953|56=SPOT|112=TEST|10=049|
8=FIX.4.4|9=61|35=0|34=17|49=SPOT|52=20250530-04:47:29.956|56=1001|112=TEST|10=051|
8=FIX.4.4|9=76|35=R|34=18|49=SPOT|52=20250530-04:47:34.061|56=1001|58=*** SERVER HELLO ***|10=139|
8=FIX.4.4|9=113|35=3|34=18|49=1001|52=20250530-04:47:34.091|56=SPOT|45=18|58=Required tag missing, field=146|371=146|372=R|373=1|10=139|
8=FIX.4.4|9=61|35=1|34=19|49=1001|52=20250530-04:47:37.953|56=SPOT|112=TEST|10=050|
8=FIX.4.4|9=61|35=0|34=19|49=SPOT|52=20250530-04:47:37.955|56=1001|112=TEST|10=051|
8=FIX.4.4|9=76|35=R|34=20|49=SPOT|52=20250530-04:47:39.061|56=1001|58=*** SERVER HELLO ***|10=137|
8=FIX.4.4|9=113|35=3|34=20|49=1001|52=20250530-04:47:39.092|56=SPOT|45=20|58=Required tag missing, field=146|371=146|372=R|373=1|10=131|
8=FIX.4.4|9=76|35=R|34=21|49=SPOT|52=20250530-04:47:44.061|56=1001|58=*** SERVER HELLO ***|10=134|
8=FIX.4.4|9=113|35=3|34=21|49=1001|52=20250530-04:47:44.066|56=SPOT|45=21|58=Required tag missing, field=146|371=146|372=R|373=1|10=130|
8=FIX.4.4|9=61|35=1|34=22|49=1001|52=20250530-04:47:45.953|56=SPOT|112=TEST|10=043|
8=FIX.4.4|9=61|35=0|34=22|49=SPOT|52=20250530-04:47:45.954|56=1001|112=TEST|10=043|
8=FIX.4.4|9=76|35=R|34=23|49=SPOT|52=20250530-04:47:49.061|56=1001|58=*** SERVER HELLO ***|10=141|
8=FIX.4.4|9=113|35=3|34=23|49=1001|52=20250530-04:47:49.091|56=SPOT|45=23|58=Required tag missing, field=146|371=146|372=R|373=1|10=137|
8=FIX.4.4|9=61|35=1|34=24|49=1001|52=20250530-04:47:53.953|56=SPOT|112=TEST|10=044|
8=FIX.4.4|9=61|35=0|34=24|49=SPOT|52=20250530-04:47:53.955|56=1001|112=TEST|10=045|
8=FIX.4.4|9=76|35=R|34=25|49=SPOT|52=20250530-04:47:54.061|56=1001|58=*** SERVER HELLO ***|10=139|
8=FIX.4.4|9=113|35=3|34=25|49=1001|52=20250530-04:47:54.093|56=SPOT|45=25|58=Required tag missing, field=146|371=146|372=R|373=1|10=139|
8=FIX.4.4|9=76|35=R|34=26|49=SPOT|52=20250530-04:47:59.061|56=1001|58=*** SERVER HELLO ***|10=145|
8=FIX.4.4|9=113|35=3|34=26|49=1001|52=20250530-04:47:59.092|56=SPOT|45=26|58=Required tag missing, field=146|371=146|372=R|373=1|10=145|
8=FIX.4.4|9=61|35=1|34=27|49=1001|52=20250530-04:48:01.953|56=SPOT|112=TEST|10=041|
8=FIX.4.4|9=61|35=0|34=27|49=SPOT|52=20250530-04:48:01.956|56=1001|112=TEST|10=043|
8=FIX.4.4|9=76|35=R|34=28|49=SPOT|52=20250530-04:48:04.061|56=1001|58=*** SERVER HELLO ***|10=138|
8=FIX.4.4|9=113|35=3|34=28|49=1001|52=20250530-04:48:04.092|56=SPOT|45=28|58=Required tag missing, field=146|371=146|372=R|373=1|10=140|
8=FIX.4.4|9=76|35=R|34=29|49=SPOT|52=20250530-04:48:09.061|56=1001|58=*** SERVER HELLO ***|10=144|
8=FIX.4.4|9=113|35=3|34=29|49=1001|52=20250530-04:48:09.065|56=SPOT|45=29|58=Required tag missing, field=146|371=146|372=R|373=1|10=147|
8=FIX.4.4|9=61|35=1|34=30|49=1001|52=20250530-04:48:09.953|56=SPOT|112=TEST|10=043|
8=FIX.4.4|9=61|35=0|34=30|49=SPOT|52=20250530-04:48:09.956|56=1001|112=TEST|10=045|
8=FIX.4.4|9=76|35=R|34=31|49=SPOT|52=20250530-04:48:14.061|56=1001|58=*** SERVER HELLO ***|10=133|
8=FIX.4.4|9=113|35=3|34=31|49=1001|52=20250530-04:48:14.064|56=SPOT|45=31|58=Required tag missing, field=146|371=146|372=R|373=1|10=128|
8=FIX.4.4|9=61|35=1|34=32|49=1001|52=20250530-04:48:17.953|56=SPOT|112=TEST|10=044|
8=FIX.4.4|9=61|35=0|34=32|49=SPOT|52=20250530-04:48:17.955|56=1001|112=TEST|10=045|
8=FIX.4.4|9=76|35=R|34=33|49=SPOT|52=20250530-04:48:19.061|56=1001|58=*** SERVER HELLO ***|10=140|
8=FIX.4.4|9=113|35=3|34=33|49=1001|52=20250530-04:48:19.093|56=SPOT|45=33|58=Required tag missing, field=146|371=146|372=R|373=1|10=139|
8=FIX.4.4|9=76|35=R|34=34|49=SPOT|52=20250530-04:48:24.061|56=1001|58=*** SERVER HELLO ***|10=137|
8=FIX.4.4|9=113|35=3|34=34|49=1001|52=20250530-04:48:24.092|56=SPOT|45=34|58=Required tag missing, field=146|371=146|372=R|373=1|10=136|
8=FIX.4.4|9=61|35=1|34=35|49=1001|52=20250530-04:48:25.953|56=SPOT|112=TEST|10=046|
8=FIX.4.4|9=61|35=0|34=35|49=SPOT|52=20250530-04:48:25.956|56=1001|112=TEST|10=048|
8=FIX.4.4|9=76|35=R|34=36|49=SPOT|52=20250530-04:48:29.061|56=1001|58=*** SERVER HELLO ***|10=144|
8=FIX.4.4|9=113|35=3|34=36|49=1001|52=20250530-04:48:29.092|56=SPOT|45=36|58=Required tag missing, field=146|371=146|372=R|373=1|10=145|
8=FIX.4.4|9=61|35=1|34=37|49=1001|52=20250530-04:48:33.953|56=SPOT|112=TEST|10=047|
8=FIX.4.4|9=61|35=0|34=37|49=SPOT|52=20250530-04:48:33.956|56=1001|112=TEST|10=049|
8=FIX.4.4|9=76|35=R|34=38|49=SPOT|52=20250530-04:48:34.061|56=1001|58=*** SERVER HELLO ***|10=142|
8=FIX.4.4|9=113|35=3|34=38|49=1001|52=20250530-04:48:34.091|56=SPOT|45=38|58=Required tag missing, field=146|371=146|372=R|373=1|10=144|
8=FIX.4.4|9=76|35=R|34=39|49=SPOT|52=20250530-04:48:39.061|56=1001|58=*** SERVER HELLO ***|10=148|
8=FIX.4.4|9=113|35=3|34=39|49=1001|52=20250530-04:48:39.091|56=SPOT|45=39|58=Required tag missing, field=146|371=146|372=R|373=1|10=151|
8=FIX.4.4|9=61|35=1|34=40|49=1001|52=20250530-04:48:41.953|56=SPOT|112=TEST|10=040|
8=FIX.4.4|9=61|35=0|34=40|49=SPOT|52=20250530-04:48:41.956|56=1001|112=TEST|10=042|
8=FIX.4.4|9=76|35=R|34=41|49=SPOT|52=20250530-04:48:44.061|56=1001|58=*** SERVER HELLO ***|10=137|
8=FIX.4.4|9=113|35=3|34=41|49=1001|52=20250530-04:48:44.092|56=SPOT|45=41|58=Required tag missing, field=146|371=146|372=R|373=1|10=134|
8=FIX.4.4|9=76|35=R|34=42|49=SPOT|52=20250530-04:48:49.061|56=1001|58=*** SERVER HELLO ***|10=143|
8=FIX.4.4|9=113|35=3|34=42|49=1001|52=20250530-04:48:49.065|56=SPOT|45=42|58=Required tag missing, field=146|371=146|372=R|373=1|10=141|
8=FIX.4.4|9=61|35=1|34=43|49=1001|52=20250530-04:48:49.953|56=SPOT|112=TEST|10=051|
8=FIX.4.4|9=61|35=0|34=43|49=SPOT|52=20250530-04:48:49.956|56=1001|112=TEST|10=053|
8=FIX.4.4|9=76|35=R|34=44|49=SPOT|52=20250530-04:48:54.061|56=1001|58=*** SERVER HELLO ***|10=141|
8=FIX.4.4|9=113|35=3|34=44|49=1001|52=20250530-04:48:54.092|56=SPOT|45=44|58=Required tag missing, field=146|371=146|372=R|373=1|10=141|
8=FIX.4.4|9=61|35=1|34=45|49=1001|52=20250530-04:48:57.953|56=SPOT|112=TEST|10=052|
8=FIX.4.4|9=61|35=0|34=45|49=SPOT|52=20250530-04:48:57.955|56=1001|112=TEST|10=053|
8=FIX.4.4|9=76|35=R|34=46|49=SPOT|52=20250530-04:48:59.061|56=1001|58=*** SERVER HELLO ***|10=148|
8=FIX.4.4|9=113|35=3|34=46|49=1001|52=20250530-04:48:59.091|56=SPOT|45=46|58=Required tag missing, field=146|371=146|372=R|373=1|10=149|
8=FIX.4.4|9=76|35=R|34=47|49=SPOT|52=20250530-04:49:04.061|56=1001|58=*** SERVER HELLO ***|10=140|
8=FIX.4.4|9=113|35=3|34=47|49=1001|52=20250530-04:49:04.065|56=SPOT|45=47|58=Required tag missing, field=146|371=146|372=R|373=1|10=143|
8=FIX.4.4|9=61|35=1|34=48|49=1001|52=20250530-04:49:05.953|56=SPOT|112=TEST|10=049|
8=FIX.4.4|9=61|35=0|34=48|49=SPOT|52=20250530-04:49:05.955|56=1001|112=TEST|10=050|
8=FIX.4.4|9=76|35=R|34=49|49=SPOT|52=20250530-04:49:09.061|56=1001|58=*** SERVER HELLO ***|10=147|
8=FIX.4.4|9=113|35=3|34=49|49=1001|52=20250530-04:49:09.092|56=SPOT|45=49|58=Required tag missing, field=146|371=146|372=R|373=1|10=152|
8=FIX.4.4|9=61|35=1|34=50|49=1001|52=20250530-04:49:13.953|56=SPOT|112=TEST|10=041|
8=FIX.4.4|9=61|35=0|34=50|49=SPOT|52=20250530-04:49:13.954|56=1001|112=TEST|10=041|
8=FIX.4.4|9=76|35=R|34=51|49=SPOT|52=20250530-04:49:14.061|56=1001|58=*** SERVER HELLO ***|10=136|
8=FIX.4.4|9=113|35=3|34=51|49=1001|52=20250530-04:49:14.091|56=SPOT|45=51|58=Required tag missing, field=146|371=146|372=R|373=1|10=133|
8=FIX.4.4|9=76|35=R|34=52|49=SPOT|52=20250530-04:49:19.061|56=1001|58=*** SERVER HELLO ***|10=142|
8=FIX.4.4|9=113|35=3|34=52|49=1001|52=20250530-04:49:19.062|56=SPOT|45=52|58=Required tag missing, field=146|371=146|372=R|373=1|10=138|
8=FIX.4.4|9=61|35=1|34=53|49=1001|52=20250530-04:49:21.953|56=SPOT|112=TEST|10=043|
8=FIX.4.4|9=61|35=0|34=53|49=SPOT|52=20250530-04:49:21.956|56=1001|112=TEST|10=045|
8=FIX.4.4|9=76|35=R|34=54|49=SPOT|52=20250530-04:49:24.061|56=1001|58=*** SERVER HELLO ***|10=140|
8=FIX.4.4|9=113|35=3|34=54|49=1001|52=20250530-04:49:24.091|56=SPOT|45=54|58=Required tag missing, field=146|371=146|372=R|373=1|10=140|
8=FIX.4.4|9=76|35=R|34=55|49=SPOT|52=20250530-04:49:29.061|56=1001|58=*** SERVER HELLO ***|10=146|
8=FIX.4.4|9=113|35=3|34=55|49=1001|52=20250530-04:49:29.092|56=SPOT|45=55|58=Required tag missing, field=146|371=146|372=R|373=1|10=148|
8=FIX.4.4|9=61|35=1|34=56|49=1001|52=20250530-04:49:29.953|56=SPOT|112=TEST|10=054|
8=FIX.4.4|9=61|35=0|34=56|49=SPOT|52=20250530-04:49:29.956|56=1001|112=TEST|10=056|
8=FIX.4.4|9=76|35=R|34=57|49=SPOT|52=20250530-04:49:34.061|56=1001|58=*** SERVER HELLO ***|10=144|
8=FIX.4.4|9=113|35=3|34=57|49=1001|52=20250530-04:49:34.091|56=SPOT|45=57|58=Required tag missing, field=146|371=146|372=R|373=1|10=147|
8=FIX.4.4|9=61|35=1|34=58|49=1001|52=20250530-04:49:37.953|56=SPOT|112=TEST|10=055|
8=FIX.4.4|9=61|35=0|34=58|49=SPOT|52=20250530-04:49:37.955|56=1001|112=TEST|10=056|
8=FIX.4.4|9=76|35=R|34=59|49=SPOT|52=20250530-04:49:39.061|56=1001|58=*** SERVER HELLO ***|10=151|
8=FIX.4.4|9=113|35=3|34=59|49=1001|52=20250530-04:49:39.092|56=SPOT|45=59|58=Required tag missing, field=146|371=146|372=R|373=1|10=157|
8=FIX.4.4|9=76|35=R|34=60|49=SPOT|52=20250530-04:49:44.061|56=1001|58=*** SERVER HELLO ***|10=139|
8=FIX.4.4|9=113|35=3|34=60|49=1001|52=20250530-04:49:44.067|56=SPOT|45=60|58=Required tag missing, field=146|371=146|372=R|373=1|10=139|
8=FIX.4.4|9=61|35=1|34=61|49=1001|52=20250530-04:49:45.953|56=SPOT|112=TEST|10=048|
8=FIX.4.4|9=61|35=0|34=61|49=SPOT|52=20250530-04:49:45.955|56=1001|112=TEST|10=049|
8=FIX.4.4|9=76|35=R|34=62|49=SPOT|52=20250530-04:49:49.061|56=1001|58=*** SERVER HELLO ***|10=146|
8=FIX.4.4|9=113|35=3|34=62|49=1001|52=20250530-04:49:49.091|56=SPOT|45=62|58=Required tag missing, field=146|371=146|372=R|373=1|10=145|
8=FIX.4.4|9=61|35=1|34=63|49=1001|52=20250530-04:49:53.953|56=SPOT|112=TEST|10=049|
8=FIX.4.4|9=61|35=0|34=63|49=SPOT|52=20250530-04:49:53.955|56=1001|112=TEST|10=050|
8=FIX.4.4|9=76|35=R|34=64|49=SPOT|52=20250530-04:49:54.061|56=1001|58=*** SERVER HELLO ***|10=144|
8=FIX.4.4|9=113|35=3|34=64|49=1001|52=20250530-04:49:54.092|56=SPOT|45=64|58=Required tag missing, field=146|371=146|372=R|373=1|10=146|
8=FIX.4.4|9=76|35=R|34=65|49=SPOT|52=20250530-04:49:59.061|56=1001|58=*** SERVER HELLO ***|10=150|
8=FIX.4.4|9=113|35=3|34=65|49=1001|52=20250530-04:49:59.064|56=SPOT|45=65|58=Required tag missing, field=146|371=146|372=R|373=1|10=152|
8=FIX.4.4|9=61|35=1|34=66|49=1001|52=20250530-04:50:01.953|56=SPOT|112=TEST|10=037|
8=FIX.4.4|9=61|35=0|34=66|49=SPOT|52=20250530-04:50:01.956|56=1001|112=TEST|10=039|
8=FIX.4.4|9=76|35=R|34=67|49=SPOT|52=20250530-04:50:04.061|56=1001|58=*** SERVER HELLO ***|10=134|
8=FIX.4.4|9=113|35=3|34=67|49=1001|52=20250530-04:50:04.091|56=SPOT|45=67|58=Required tag missing, field=146|371=146|372=R|373=1|10=138|
8=FIX.4.4|9=76|35=R|34=68|49=SPOT|52=20250530-04:50:09.061|56=1001|58=*** SERVER HELLO ***|10=140|
8=FIX.4.4|9=113|35=3|34=68|49=1001|52=20250530-04:50:09.091|56=SPOT|45=68|58=Required tag missing, field=146|371=146|372=R|373=1|10=145|
8=FIX.4.4|9=61|35=1|34=69|49=1001|52=20250530-04:50:09.953|56=SPOT|112=TEST|10=048|
8=FIX.4.4|9=61|35=0|34=69|49=SPOT|52=20250530-04:50:09.955|56=1001|112=TEST|10=049|
8=FIX.4.4|9=76|35=R|34=70|49=SPOT|52=20250530-04:50:14.061|56=1001|58=*** SERVER HELLO ***|10=129|
8=FIX.4.4|9=113|35=3|34=70|49=1001|52=20250530-04:50:14.092|56=SPOT|45=70|58=Required tag missing, field=146|371=146|372=R|373=1|10=128|
8=FIX.4.4|9=61|35=1|34=71|49=1001|52=20250530-04:50:17.953|56=SPOT|112=TEST|10=040|
8=FIX.4.4|9=61|35=0|34=71|49=SPOT|52=20250530-04:50:17.955|56=1001|112=TEST|10=041|
8=FIX.4.4|9=76|35=R|34=72|49=SPOT|52=20250530-04:50:19.061|56=1001|58=*** SERVER HELLO ***|10=136|
8=FIX.4.4|9=113|35=3|34=72|49=1001|52=20250530-04:50:19.091|56=SPOT|45=72|58=Required tag missing, field=146|371=146|372=R|373=1|10=136|
8=FIX.4.4|9=76|35=R|34=73|49=SPOT|52=20250530-04:50:24.061|56=1001|58=*** SERVER HELLO ***|10=133|
8=FIX.4.4|9=113|35=3|34=73|49=1001|52=20250530-04:50:24.066|56=SPOT|45=73|58=Required tag missing, field=146|371=146|372=R|373=1|10=136|
8=FIX.4.4|9=61|35=1|34=74|49=1001|52=20250530-04:50:25.952|56=SPOT|112=TEST|10=041|
8=FIX.4.4|9=61|35=0|34=74|49=SPOT|52=20250530-04:50:25.955|56=1001|112=TEST|10=043|
8=FIX.4.4|9=76|35=R|34=75|49=SPOT|52=20250530-04:50:29.061|56=1001|58=*** SERVER HELLO ***|10=140|
8=FIX.4.4|9=113|35=3|34=75|49=1001|52=20250530-04:50:29.092|56=SPOT|45=75|58=Required tag missing, field=146|371=146|372=R|373=1|10=144|
8=FIX.4.4|9=61|35=1|34=76|49=1001|52=20250530-04:50:33.953|56=SPOT|112=TEST|10=043|
8=FIX.4.4|9=61|35=0|34=76|49=SPOT|52=20250530-04:50:33.955|56=1001|112=TEST|10=044|
8=FIX.4.4|9=76|35=R|34=77|49=SPOT|52=20250530-04:50:34.061|56=1001|58=*** SERVER HELLO ***|10=138|
8=FIX.4.4|9=113|35=3|34=77|49=1001|52=20250530-04:50:34.092|56=SPOT|45=77|58=Required tag missing, field=146|371=146|372=R|373=1|10=144|
8=FIX.4.4|9=76|35=R|34=78|49=SPOT|52=20250530-04:50:39.061|56=1001|58=*** SERVER HELLO ***|10=144|
8=FIX.4.4|9=113|35=3|34=78|49=1001|52=20250530-04:50:39.092|56=SPOT|45=78|58=Required tag missing, field=146|371=146|372=R|373=1|10=151|
8=FIX.4.4|9=61|35=1|34=79|49=1001|52=20250530-04:50:41.953|56=SPOT|112=TEST|10=045|
8=FIX.4.4|9=61|35=0|34=79|49=SPOT|52=20250530-04:50:41.955|56=1001|112=TEST|10=046|
8=FIX.4.4|9=76|35=R|34=80|49=SPOT|52=20250530-04:50:44.061|56=1001|58=*** SERVER HELLO ***|10=133|
8=FIX.4.4|9=113|35=3|34=80|49=1001|52=20250530-04:50:44.092|56=SPOT|45=80|58=Required tag missing, field=146|371=146|372=R|373=1|10=133|
8=FIX.4.4|9=76|35=R|34=81|49=SPOT|52=20250530-04:50:49.061|56=1001|58=*** SERVER HELLO ***|10=139|
8=FIX.4.4|9=113|35=3|34=81|49=1001|52=20250530-04:50:49.065|56=SPOT|45=81|58=Required tag missing, field=146|371=146|372=R|373=1|10=140|
8=FIX.4.4|9=61|35=1|34=82|49=1001|52=20250530-04:50:49.953|56=SPOT|112=TEST|10=047|
8=FIX.4.4|9=61|35=0|34=82|49=SPOT|52=20250530-04:50:49.955|56=1001|112=TEST|10=048|
8=FIX.4.4|9=76|35=R|34=83|49=SPOT|52=20250530-04:50:54.061|56=1001|58=*** SERVER HELLO ***|10=137|
8=FIX.4.4|9=113|35=3|34=83|49=1001|52=20250530-04:50:54.092|56=SPOT|45=83|58=Required tag missing, field=146|371=146|372=R|373=1|10=140|
8=FIX.4.4|9=61|35=1|34=84|49=1001|52=20250530-04:50:57.953|56=SPOT|112=TEST|10=048|
8=FIX.4.4|9=61|35=0|34=84|49=SPOT|52=20250530-04:50:57.955|56=1001|112=TEST|10=049|
8=FIX.4.4|9=76|35=R|34=85|49=SPOT|52=20250530-04:50:59.061|56=1001|58=*** SERVER HELLO ***|10=144|
8=FIX.4.4|9=113|35=3|34=85|49=1001|52=20250530-04:50:59.091|56=SPOT|45=85|58=Required tag missing, field=146|371=146|372=R|373=1|10=148|
8=FIX.4.4|9=76|35=R|34=86|49=SPOT|52=20250530-04:51:04.061|56=1001|58=*** SERVER HELLO ***|10=136|
8=FIX.4.4|9=113|35=3|34=86|49=1001|52=20250530-04:51:04.065|56=SPOT|45=86|58=Required tag missing, field=146|371=146|372=R|373=1|10=142|
8=FIX.4.4|9=61|35=1|34=87|49=1001|52=20250530-04:51:05.953|56=SPOT|112=TEST|10=045|
8=FIX.4.4|9=61|35=0|34=87|49=SPOT|52=20250530-04:51:05.955|56=1001|112=TEST|10=046|
8=FIX.4.4|9=76|35=R|34=88|49=SPOT|52=20250530-04:51:09.061|56=1001|58=*** SERVER HELLO ***|10=143|
8=FIX.4.4|9=113|35=3|34=88|49=1001|52=20250530-04:51:09.092|56=SPOT|45=88|58=Required tag missing, field=146|371=146|372=R|373=1|10=151|
8=FIX.4.4|9=61|35=1|34=89|49=1001|52=20250530-04:51:13.952|56=SPOT|112=TEST|10=045|
8=FIX.4.4|9=61|35=0|34=89|49=SPOT|52=20250530-04:51:13.954|56=1001|112=TEST|10=046|
8=FIX.4.4|9=76|35=R|34=90|49=SPOT|52=20250530-04:51:14.061|56=1001|58=*** SERVER HELLO ***|10=132|
8=FIX.4.4|9=113|35=3|34=90|49=1001|52=20250530-04:51:14.091|56=SPOT|45=90|58=Required tag missing, field=146|371=146|372=R|373=1|10=132|
8=FIX.4.4|9=76|35=R|34=91|49=SPOT|52=20250530-04:51:19.061|56=1001|58=*** SERVER HELLO ***|10=138|
8=FIX.4.4|9=113|35=3|34=91|49=1001|52=20250530-04:51:19.091|56=SPOT|45=91|58=Required tag missing, field=146|371=146|372=R|373=1|10=139|
8=FIX.4.4|9=61|35=1|34=92|49=1001|52=20250530-04:51:21.953|56=SPOT|112=TEST|10=039|
8=FIX.4.4|9=61|35=0|34=92|49=SPOT|52=20250530-04:51:21.955|56=1001|112=TEST|10=040|
8=FIX.4.4|9=76|35=R|34=93|49=SPOT|52=20250530-04:51:24.061|56=1001|58=*** SERVER HELLO ***|10=136|
8=FIX.4.4|9=113|35=3|34=93|49=1001|52=20250530-04:51:24.091|56=SPOT|45=93|58=Required tag missing, field=146|371=146|372=R|373=1|10=139|
8=FIX.4.4|9=76|35=R|34=94|49=SPOT|52=20250530-04:51:29.061|56=1001|58=*** SERVER HELLO ***|10=142|
8=FIX.4.4|9=113|35=3|34=94|49=1001|52=20250530-04:51:29.066|56=SPOT|45=94|58=Required tag missing, field=146|371=146|372=R|373=1|10=148|
8=FIX.4.4|9=61|35=1|34=95|49=1001|52=20250530-04:51:29.953|56=SPOT|112=TEST|10=050|
8=FIX.4.4|9=61|35=0|34=95|49=SPOT|52=20250530-04:51:29.955|56=1001|112=TEST|10=051|
8=FIX.4.4|9=76|35=R|34=96|49=SPOT|52=20250530-04:51:34.061|56=1001|58=*** SERVER HELLO ***|10=140|
8=FIX.4.4|9=113|35=3|34=96|49=1001|52=20250530-04:51:34.092|56=SPOT|45=96|58=Required tag missing, field=146|371=146|372=R|373=1|10=147|
8=FIX.4.4|9=68|35=A|34=1|49=1001|52=20250530-05:28:50.748|56=SPOT|98=0|108=5|141=Y|10=019|
8=FIX.4.4|9=68|35=A|34=1|49=SPOT|52=20250530-05:28:50.808|56=1001|98=0|108=5|141=Y|10=016|
8=FIX.4.4|9=75|35=R|34=2|49=SPOT|52=20250530-05:28:55.616|56=1001|58=*** SERVER HELLO ***|10=092|
8=FIX.4.4|9=111|35=3|34=2|49=1001|52=20250530-05:28:55.622|56=SPOT|45=2|58=Required tag missing, field=146|371=146|372=R|373=1|10=030|
8=FIX.4.4|9=60|35=1|34=3|49=1001|52=20250530-05:28:58.706|56=SPOT|112=TEST|10=249|
8=FIX.4.4|9=60|35=0|34=3|49=SPOT|52=20250530-05:28:58.709|56=1001|112=TEST|10=251|
8=FIX.4.4|9=75|35=R|34=4|49=SPOT|52=20250530-05:29:00.614|56=1001|58=*** SERVER HELLO ***|10=083|
8=FIX.4.4|9=111|35=3|34=4|49=1001|52=20250530-05:29:00.615|56=SPOT|45=4|58=Required tag missing, field=146|371=146|372=R|373=1|10=027|
8=FIX.4.4|9=75|35=R|34=5|49=SPOT|52=20250530-05:29:05.614|56=1001|58=*** SERVER HELLO ***|10=089|
8=FIX.4.4|9=111|35=3|34=5|49=1001|52=20250530-05:29:05.617|56=SPOT|45=5|58=Required tag missing, field=146|371=146|372=R|373=1|10=036|
8=FIX.4.4|9=60|35=1|34=6|49=1001|52=20250530-05:29:06.705|56=SPOT|112=TEST|10=245|
8=FIX.4.4|9=60|35=0|34=6|49=SPOT|52=20250530-05:29:06.708|56=1001|112=TEST|10=247|
