20250529-12:01:27: Session FIX.4.4:1001->SPOT schedule is daily, 00:00:00-UTC - 00:00:00-UTC
20250529-12:01:27: Created session: FIX.4.4:1001->SPOT
20250529-12:01:27: Configured socket addresses for session: [/0.0.0.0:9000]
20250529-12:01:27: MINA session created: local=/127.0.0.1:42590, class org.apache.mina.transport.socket.nio.NioSocketSession, remote=/127.0.0.1:9000
20250529-12:01:28: Initiated logon request
20250529-12:01:28: Logon contains ResetSeqNumFlag=Y, resetting sequence numbers to 1
20250529-12:01:28: Received logon
20250529-12:01:32: Rejecting invalid message: quickfix.FieldException: Required tag missing, field=146: 8=FIX.4.4|9=75|35=R|34=2|49=SPOT|52=20250529-12:01:32.763|56=1001|58=*** SERVER HELLO ***|10=087|
20250529-12:01:32: Reject sent for message 2: Required tag missing, field=146
20250529-12:01:36: Sent test request TEST
20250529-12:01:37: Rejecting invalid message: quickfix.FieldException: Required tag missing, field=146: 8=FIX.4.4|9=75|35=R|34=4|49=SPOT|52=20250529-12:01:37.761|56=1001|58=*** SERVER HELLO ***|10=092|
20250529-12:01:37: Reject sent for message 4: Required tag missing, field=146
20250529-12:01:42: Rejecting invalid message: quickfix.FieldException: Required tag missing, field=146: 8=FIX.4.4|9=75|35=R|34=5|49=SPOT|52=20250529-12:01:42.761|56=1001|58=*** SERVER HELLO ***|10=089|
20250529-12:01:42: Reject sent for message 5: Required tag missing, field=146
20250529-12:01:44: Sent test request TEST
20250529-12:01:47: Rejecting invalid message: quickfix.FieldException: Required tag missing, field=146: 8=FIX.4.4|9=75|35=R|34=7|49=SPOT|52=20250529-12:01:47.761|56=1001|58=*** SERVER HELLO ***|10=096|
20250529-12:01:47: Reject sent for message 7: Required tag missing, field=146
20250529-12:01:52: Sent test request TEST
20250529-12:01:52: Rejecting invalid message: quickfix.FieldException: Required tag missing, field=146: 8=FIX.4.4|9=75|35=R|34=9|49=SPOT|52=20250529-12:01:52.761|56=1001|58=*** SERVER HELLO ***|10=094|
20250529-12:01:52: Reject sent for message 9: Required tag missing, field=146
20250529-12:44:52: Session FIX.4.4:1001->SPOT schedule is daily, 00:00:00-UTC - 00:00:00-UTC
20250529-12:44:52: Created session: FIX.4.4:1001->SPOT
20250529-12:44:52: Configured socket addresses for session: [/0.0.0.0:9000]
20250529-12:44:52: MINA session created: local=/127.0.0.1:48862, class org.apache.mina.transport.socket.nio.NioSocketSession, remote=/127.0.0.1:9000
20250529-12:44:54: Initiated logon request
20250529-12:44:54: Logon contains ResetSeqNumFlag=Y, resetting sequence numbers to 1
20250529-12:44:54: Received logon
20250529-12:44:57: Rejecting invalid message: quickfix.FieldException: Required tag missing, field=146: 8=FIX.4.4|9=75|35=R|34=2|49=SPOT|52=20250529-12:44:57.578|56=1001|58=*** SERVER HELLO ***|10=105|
20250529-12:44:57: Reject sent for message 2: Required tag missing, field=146
20250529-12:45:01: Sent test request TEST
20250529-12:45:02: Rejecting invalid message: quickfix.FieldException: Required tag missing, field=146: 8=FIX.4.4|9=75|35=R|34=4|49=SPOT|52=20250529-12:45:02.577|56=1001|58=*** SERVER HELLO ***|10=097|
20250529-12:45:02: Reject sent for message 4: Required tag missing, field=146
20250529-12:45:07: Rejecting invalid message: quickfix.FieldException: Required tag missing, field=146: 8=FIX.4.4|9=75|35=R|34=5|49=SPOT|52=20250529-12:45:07.577|56=1001|58=*** SERVER HELLO ***|10=103|
20250529-12:45:07: Reject sent for message 5: Required tag missing, field=146
20250529-12:45:09: Sent test request TEST
20250529-12:45:12: Rejecting invalid message: quickfix.FieldException: Required tag missing, field=146: 8=FIX.4.4|9=75|35=R|34=7|49=SPOT|52=20250529-12:45:12.577|56=1001|58=*** SERVER HELLO ***|10=101|
20250529-12:45:12: Reject sent for message 7: Required tag missing, field=146
20250529-12:45:17: Rejecting invalid message: quickfix.FieldException: Required tag missing, field=146: 8=FIX.4.4|9=75|35=R|34=8|49=SPOT|52=20250529-12:45:17.577|56=1001|58=*** SERVER HELLO ***|10=107|
20250529-12:45:17: Reject sent for message 8: Required tag missing, field=146
20250529-12:45:17: Sent test request TEST
20250529-12:45:22: Rejecting invalid message: quickfix.FieldException: Required tag missing, field=146: 8=FIX.4.4|9=76|35=R|34=10|49=SPOT|52=20250529-12:45:22.577|56=1001|58=*** SERVER HELLO ***|10=145|
20250529-12:45:22: Reject sent for message 10: Required tag missing, field=146
20250529-12:45:25: Sent test request TEST
20250529-12:45:27: Rejecting invalid message: quickfix.FieldException: Required tag missing, field=146: 8=FIX.4.4|9=76|35=R|34=12|49=SPOT|52=20250529-12:45:27.577|56=1001|58=*** SERVER HELLO ***|10=152|
20250529-12:45:27: Reject sent for message 12: Required tag missing, field=146
20250529-12:45:32: Rejecting invalid message: quickfix.FieldException: Required tag missing, field=146: 8=FIX.4.4|9=76|35=R|34=13|49=SPOT|52=20250529-12:45:32.577|56=1001|58=*** SERVER HELLO ***|10=149|
20250529-12:45:32: Reject sent for message 13: Required tag missing, field=146
20250529-12:45:33: Sent test request TEST
20250529-12:45:37: Rejecting invalid message: quickfix.FieldException: Required tag missing, field=146: 8=FIX.4.4|9=76|35=R|34=15|49=SPOT|52=20250529-12:45:37.577|56=1001|58=*** SERVER HELLO ***|10=156|
20250529-12:45:37: Reject sent for message 15: Required tag missing, field=146
20250529-12:45:41: Sent test request TEST
20250529-12:45:42: Rejecting invalid message: quickfix.FieldException: Required tag missing, field=146: 8=FIX.4.4|9=76|35=R|34=17|49=SPOT|52=20250529-12:45:42.577|56=1001|58=*** SERVER HELLO ***|10=154|
20250529-12:45:42: Reject sent for message 17: Required tag missing, field=146
20250529-12:45:47: Rejecting invalid message: quickfix.FieldException: Required tag missing, field=146: 8=FIX.4.4|9=76|35=R|34=18|49=SPOT|52=20250529-12:45:47.577|56=1001|58=*** SERVER HELLO ***|10=160|
20250529-12:45:47: Reject sent for message 18: Required tag missing, field=146
20250529-12:45:49: Sent test request TEST
20250529-12:45:52: Rejecting invalid message: quickfix.FieldException: Required tag missing, field=146: 8=FIX.4.4|9=76|35=R|34=20|49=SPOT|52=20250529-12:45:52.577|56=1001|58=*** SERVER HELLO ***|10=149|
20250529-12:45:52: Reject sent for message 20: Required tag missing, field=146
20250529-12:45:57: Rejecting invalid message: quickfix.FieldException: Required tag missing, field=146: 8=FIX.4.4|9=76|35=R|34=21|49=SPOT|52=20250529-12:45:57.577|56=1001|58=*** SERVER HELLO ***|10=155|
20250529-12:45:57: Reject sent for message 21: Required tag missing, field=146
20250529-12:45:57: Sent test request TEST
20250529-12:46:02: Rejecting invalid message: quickfix.FieldException: Required tag missing, field=146: 8=FIX.4.4|9=76|35=R|34=23|49=SPOT|52=20250529-12:46:02.577|56=1001|58=*** SERVER HELLO ***|10=148|
20250529-12:46:02: Reject sent for message 23: Required tag missing, field=146
20250529-12:46:05: Sent test request TEST
20250529-12:46:07: Rejecting invalid message: quickfix.FieldException: Required tag missing, field=146: 8=FIX.4.4|9=76|35=R|34=25|49=SPOT|52=20250529-12:46:07.577|56=1001|58=*** SERVER HELLO ***|10=155|
20250529-12:46:07: Reject sent for message 25: Required tag missing, field=146
20250529-12:46:12: Rejecting invalid message: quickfix.FieldException: Required tag missing, field=146: 8=FIX.4.4|9=76|35=R|34=26|49=SPOT|52=20250529-12:46:12.577|56=1001|58=*** SERVER HELLO ***|10=152|
20250529-12:46:12: Reject sent for message 26: Required tag missing, field=146
20250529-12:46:13: Sent test request TEST
20250529-12:46:17: Rejecting invalid message: quickfix.FieldException: Required tag missing, field=146: 8=FIX.4.4|9=76|35=R|34=28|49=SPOT|52=20250529-12:46:17.577|56=1001|58=*** SERVER HELLO ***|10=159|
20250529-12:46:17: Reject sent for message 28: Required tag missing, field=146
20250529-12:46:21: Sent test request TEST
20250529-12:46:22: Rejecting invalid message: quickfix.FieldException: Required tag missing, field=146: 8=FIX.4.4|9=76|35=R|34=30|49=SPOT|52=20250529-12:46:22.577|56=1001|58=*** SERVER HELLO ***|10=148|
20250529-12:46:22: Reject sent for message 30: Required tag missing, field=146
20250529-12:46:27: Rejecting invalid message: quickfix.FieldException: Required tag missing, field=146: 8=FIX.4.4|9=76|35=R|34=31|49=SPOT|52=20250529-12:46:27.577|56=1001|58=*** SERVER HELLO ***|10=154|
20250529-12:46:27: Reject sent for message 31: Required tag missing, field=146
20250529-12:46:29: Sent test request TEST
20250529-12:46:32: Rejecting invalid message: quickfix.FieldException: Required tag missing, field=146: 8=FIX.4.4|9=76|35=R|34=33|49=SPOT|52=20250529-12:46:32.577|56=1001|58=*** SERVER HELLO ***|10=152|
20250529-12:46:32: Reject sent for message 33: Required tag missing, field=146
20250530-04:46:40: Session FIX.4.4:1001->SPOT schedule is daily, 00:00:00-UTC - 00:00:00-UTC
20250530-04:46:40: Session state is not current; resetting FIX.4.4:1001->SPOT
20250530-04:46:40: Created session: FIX.4.4:1001->SPOT
20250530-04:46:40: Configured socket addresses for session: [/0.0.0.0:9000]
20250530-04:46:40: MINA session created: local=/127.0.0.1:48866, class org.apache.mina.transport.socket.nio.NioSocketSession, remote=/127.0.0.1:9000
20250530-04:46:41: Initiated logon request
20250530-04:46:42: Logon contains ResetSeqNumFlag=Y, resetting sequence numbers to 1
20250530-04:46:42: Received logon
20250530-04:46:44: Rejecting invalid message: quickfix.FieldException: Required tag missing, field=146: 8=FIX.4.4|9=75|35=R|34=2|49=SPOT|52=20250530-04:46:44.067|56=1001|58=*** SERVER HELLO ***|10=089|
20250530-04:46:44: Reject sent for message 2: Required tag missing, field=146
20250530-04:46:49: Rejecting invalid message: quickfix.FieldException: Required tag missing, field=146: 8=FIX.4.4|9=75|35=R|34=3|49=SPOT|52=20250530-04:46:49.061|56=1001|58=*** SERVER HELLO ***|10=089|
20250530-04:46:49: Reject sent for message 3: Required tag missing, field=146
20250530-04:46:49: Sent test request TEST
20250530-04:46:54: Rejecting invalid message: quickfix.FieldException: Required tag missing, field=146: 8=FIX.4.4|9=75|35=R|34=5|49=SPOT|52=20250530-04:46:54.061|56=1001|58=*** SERVER HELLO ***|10=087|
20250530-04:46:54: Reject sent for message 5: Required tag missing, field=146
20250530-04:46:57: Sent test request TEST
20250530-04:46:59: Rejecting invalid message: quickfix.FieldException: Required tag missing, field=146: 8=FIX.4.4|9=75|35=R|34=7|49=SPOT|52=20250530-04:46:59.061|56=1001|58=*** SERVER HELLO ***|10=094|
20250530-04:46:59: Reject sent for message 7: Required tag missing, field=146
20250530-04:47:04: Rejecting invalid message: quickfix.FieldException: Required tag missing, field=146: 8=FIX.4.4|9=75|35=R|34=8|49=SPOT|52=20250530-04:47:04.061|56=1001|58=*** SERVER HELLO ***|10=086|
20250530-04:47:04: Reject sent for message 8: Required tag missing, field=146
20250530-04:47:05: Sent test request TEST
20250530-04:47:09: Rejecting invalid message: quickfix.FieldException: Required tag missing, field=146: 8=FIX.4.4|9=76|35=R|34=10|49=SPOT|52=20250530-04:47:09.061|56=1001|58=*** SERVER HELLO ***|10=133|
20250530-04:47:09: Reject sent for message 10: Required tag missing, field=146
20250530-04:47:13: Sent test request TEST
20250530-04:47:14: Rejecting invalid message: quickfix.FieldException: Required tag missing, field=146: 8=FIX.4.4|9=76|35=R|34=12|49=SPOT|52=20250530-04:47:14.061|56=1001|58=*** SERVER HELLO ***|10=131|
20250530-04:47:14: Reject sent for message 12: Required tag missing, field=146
20250530-04:47:19: Rejecting invalid message: quickfix.FieldException: Required tag missing, field=146: 8=FIX.4.4|9=76|35=R|34=13|49=SPOT|52=20250530-04:47:19.062|56=1001|58=*** SERVER HELLO ***|10=138|
20250530-04:47:19: Reject sent for message 13: Required tag missing, field=146
20250530-04:47:21: Sent test request TEST
20250530-04:47:24: Rejecting invalid message: quickfix.FieldException: Required tag missing, field=146: 8=FIX.4.4|9=76|35=R|34=15|49=SPOT|52=20250530-04:47:24.061|56=1001|58=*** SERVER HELLO ***|10=135|
20250530-04:47:24: Reject sent for message 15: Required tag missing, field=146
20250530-04:47:29: Rejecting invalid message: quickfix.FieldException: Required tag missing, field=146: 8=FIX.4.4|9=76|35=R|34=16|49=SPOT|52=20250530-04:47:29.062|56=1001|58=*** SERVER HELLO ***|10=142|
20250530-04:47:29: Reject sent for message 16: Required tag missing, field=146
20250530-04:47:29: Sent test request TEST
20250530-04:47:34: Rejecting invalid message: quickfix.FieldException: Required tag missing, field=146: 8=FIX.4.4|9=76|35=R|34=18|49=SPOT|52=20250530-04:47:34.061|56=1001|58=*** SERVER HELLO ***|10=139|
20250530-04:47:34: Reject sent for message 18: Required tag missing, field=146
20250530-04:47:37: Sent test request TEST
20250530-04:47:39: Rejecting invalid message: quickfix.FieldException: Required tag missing, field=146: 8=FIX.4.4|9=76|35=R|34=20|49=SPOT|52=20250530-04:47:39.061|56=1001|58=*** SERVER HELLO ***|10=137|
20250530-04:47:39: Reject sent for message 20: Required tag missing, field=146
20250530-04:47:44: Rejecting invalid message: quickfix.FieldException: Required tag missing, field=146: 8=FIX.4.4|9=76|35=R|34=21|49=SPOT|52=20250530-04:47:44.061|56=1001|58=*** SERVER HELLO ***|10=134|
20250530-04:47:44: Reject sent for message 21: Required tag missing, field=146
20250530-04:47:45: Sent test request TEST
20250530-04:47:49: Rejecting invalid message: quickfix.FieldException: Required tag missing, field=146: 8=FIX.4.4|9=76|35=R|34=23|49=SPOT|52=20250530-04:47:49.061|56=1001|58=*** SERVER HELLO ***|10=141|
20250530-04:47:49: Reject sent for message 23: Required tag missing, field=146
20250530-04:47:53: Sent test request TEST
20250530-04:47:54: Rejecting invalid message: quickfix.FieldException: Required tag missing, field=146: 8=FIX.4.4|9=76|35=R|34=25|49=SPOT|52=20250530-04:47:54.061|56=1001|58=*** SERVER HELLO ***|10=139|
20250530-04:47:54: Reject sent for message 25: Required tag missing, field=146
20250530-04:47:59: Rejecting invalid message: quickfix.FieldException: Required tag missing, field=146: 8=FIX.4.4|9=76|35=R|34=26|49=SPOT|52=20250530-04:47:59.061|56=1001|58=*** SERVER HELLO ***|10=145|
20250530-04:47:59: Reject sent for message 26: Required tag missing, field=146
20250530-04:48:01: Sent test request TEST
20250530-04:48:04: Rejecting invalid message: quickfix.FieldException: Required tag missing, field=146: 8=FIX.4.4|9=76|35=R|34=28|49=SPOT|52=20250530-04:48:04.061|56=1001|58=*** SERVER HELLO ***|10=138|
20250530-04:48:04: Reject sent for message 28: Required tag missing, field=146
20250530-04:48:09: Rejecting invalid message: quickfix.FieldException: Required tag missing, field=146: 8=FIX.4.4|9=76|35=R|34=29|49=SPOT|52=20250530-04:48:09.061|56=1001|58=*** SERVER HELLO ***|10=144|
20250530-04:48:09: Reject sent for message 29: Required tag missing, field=146
20250530-04:48:09: Sent test request TEST
20250530-04:48:14: Rejecting invalid message: quickfix.FieldException: Required tag missing, field=146: 8=FIX.4.4|9=76|35=R|34=31|49=SPOT|52=20250530-04:48:14.061|56=1001|58=*** SERVER HELLO ***|10=133|
20250530-04:48:14: Reject sent for message 31: Required tag missing, field=146
20250530-04:48:17: Sent test request TEST
20250530-04:48:19: Rejecting invalid message: quickfix.FieldException: Required tag missing, field=146: 8=FIX.4.4|9=76|35=R|34=33|49=SPOT|52=20250530-04:48:19.061|56=1001|58=*** SERVER HELLO ***|10=140|
20250530-04:48:19: Reject sent for message 33: Required tag missing, field=146
20250530-04:48:24: Rejecting invalid message: quickfix.FieldException: Required tag missing, field=146: 8=FIX.4.4|9=76|35=R|34=34|49=SPOT|52=20250530-04:48:24.061|56=1001|58=*** SERVER HELLO ***|10=137|
20250530-04:48:24: Reject sent for message 34: Required tag missing, field=146
20250530-04:48:25: Sent test request TEST
20250530-04:48:29: Rejecting invalid message: quickfix.FieldException: Required tag missing, field=146: 8=FIX.4.4|9=76|35=R|34=36|49=SPOT|52=20250530-04:48:29.061|56=1001|58=*** SERVER HELLO ***|10=144|
20250530-04:48:29: Reject sent for message 36: Required tag missing, field=146
20250530-04:48:33: Sent test request TEST
20250530-04:48:34: Rejecting invalid message: quickfix.FieldException: Required tag missing, field=146: 8=FIX.4.4|9=76|35=R|34=38|49=SPOT|52=20250530-04:48:34.061|56=1001|58=*** SERVER HELLO ***|10=142|
20250530-04:48:34: Reject sent for message 38: Required tag missing, field=146
20250530-04:48:39: Rejecting invalid message: quickfix.FieldException: Required tag missing, field=146: 8=FIX.4.4|9=76|35=R|34=39|49=SPOT|52=20250530-04:48:39.061|56=1001|58=*** SERVER HELLO ***|10=148|
20250530-04:48:39: Reject sent for message 39: Required tag missing, field=146
20250530-04:48:41: Sent test request TEST
20250530-04:48:44: Rejecting invalid message: quickfix.FieldException: Required tag missing, field=146: 8=FIX.4.4|9=76|35=R|34=41|49=SPOT|52=20250530-04:48:44.061|56=1001|58=*** SERVER HELLO ***|10=137|
20250530-04:48:44: Reject sent for message 41: Required tag missing, field=146
20250530-04:48:49: Rejecting invalid message: quickfix.FieldException: Required tag missing, field=146: 8=FIX.4.4|9=76|35=R|34=42|49=SPOT|52=20250530-04:48:49.061|56=1001|58=*** SERVER HELLO ***|10=143|
20250530-04:48:49: Reject sent for message 42: Required tag missing, field=146
20250530-04:48:49: Sent test request TEST
20250530-04:48:54: Rejecting invalid message: quickfix.FieldException: Required tag missing, field=146: 8=FIX.4.4|9=76|35=R|34=44|49=SPOT|52=20250530-04:48:54.061|56=1001|58=*** SERVER HELLO ***|10=141|
20250530-04:48:54: Reject sent for message 44: Required tag missing, field=146
20250530-04:48:57: Sent test request TEST
20250530-04:48:59: Rejecting invalid message: quickfix.FieldException: Required tag missing, field=146: 8=FIX.4.4|9=76|35=R|34=46|49=SPOT|52=20250530-04:48:59.061|56=1001|58=*** SERVER HELLO ***|10=148|
20250530-04:48:59: Reject sent for message 46: Required tag missing, field=146
20250530-04:49:04: Rejecting invalid message: quickfix.FieldException: Required tag missing, field=146: 8=FIX.4.4|9=76|35=R|34=47|49=SPOT|52=20250530-04:49:04.061|56=1001|58=*** SERVER HELLO ***|10=140|
20250530-04:49:04: Reject sent for message 47: Required tag missing, field=146
20250530-04:49:05: Sent test request TEST
20250530-04:49:09: Rejecting invalid message: quickfix.FieldException: Required tag missing, field=146: 8=FIX.4.4|9=76|35=R|34=49|49=SPOT|52=20250530-04:49:09.061|56=1001|58=*** SERVER HELLO ***|10=147|
20250530-04:49:09: Reject sent for message 49: Required tag missing, field=146
20250530-04:49:13: Sent test request TEST
20250530-04:49:14: Rejecting invalid message: quickfix.FieldException: Required tag missing, field=146: 8=FIX.4.4|9=76|35=R|34=51|49=SPOT|52=20250530-04:49:14.061|56=1001|58=*** SERVER HELLO ***|10=136|
20250530-04:49:14: Reject sent for message 51: Required tag missing, field=146
20250530-04:49:19: Rejecting invalid message: quickfix.FieldException: Required tag missing, field=146: 8=FIX.4.4|9=76|35=R|34=52|49=SPOT|52=20250530-04:49:19.061|56=1001|58=*** SERVER HELLO ***|10=142|
20250530-04:49:19: Reject sent for message 52: Required tag missing, field=146
20250530-04:49:21: Sent test request TEST
20250530-04:49:24: Rejecting invalid message: quickfix.FieldException: Required tag missing, field=146: 8=FIX.4.4|9=76|35=R|34=54|49=SPOT|52=20250530-04:49:24.061|56=1001|58=*** SERVER HELLO ***|10=140|
20250530-04:49:24: Reject sent for message 54: Required tag missing, field=146
20250530-04:49:29: Rejecting invalid message: quickfix.FieldException: Required tag missing, field=146: 8=FIX.4.4|9=76|35=R|34=55|49=SPOT|52=20250530-04:49:29.061|56=1001|58=*** SERVER HELLO ***|10=146|
20250530-04:49:29: Reject sent for message 55: Required tag missing, field=146
20250530-04:49:29: Sent test request TEST
20250530-04:49:34: Rejecting invalid message: quickfix.FieldException: Required tag missing, field=146: 8=FIX.4.4|9=76|35=R|34=57|49=SPOT|52=20250530-04:49:34.061|56=1001|58=*** SERVER HELLO ***|10=144|
20250530-04:49:34: Reject sent for message 57: Required tag missing, field=146
20250530-04:49:37: Sent test request TEST
20250530-04:49:39: Rejecting invalid message: quickfix.FieldException: Required tag missing, field=146: 8=FIX.4.4|9=76|35=R|34=59|49=SPOT|52=20250530-04:49:39.061|56=1001|58=*** SERVER HELLO ***|10=151|
20250530-04:49:39: Reject sent for message 59: Required tag missing, field=146
20250530-04:49:44: Rejecting invalid message: quickfix.FieldException: Required tag missing, field=146: 8=FIX.4.4|9=76|35=R|34=60|49=SPOT|52=20250530-04:49:44.061|56=1001|58=*** SERVER HELLO ***|10=139|
20250530-04:49:44: Reject sent for message 60: Required tag missing, field=146
20250530-04:49:45: Sent test request TEST
20250530-04:49:49: Rejecting invalid message: quickfix.FieldException: Required tag missing, field=146: 8=FIX.4.4|9=76|35=R|34=62|49=SPOT|52=20250530-04:49:49.061|56=1001|58=*** SERVER HELLO ***|10=146|
20250530-04:49:49: Reject sent for message 62: Required tag missing, field=146
20250530-04:49:53: Sent test request TEST
20250530-04:49:54: Rejecting invalid message: quickfix.FieldException: Required tag missing, field=146: 8=FIX.4.4|9=76|35=R|34=64|49=SPOT|52=20250530-04:49:54.061|56=1001|58=*** SERVER HELLO ***|10=144|
20250530-04:49:54: Reject sent for message 64: Required tag missing, field=146
20250530-04:49:59: Rejecting invalid message: quickfix.FieldException: Required tag missing, field=146: 8=FIX.4.4|9=76|35=R|34=65|49=SPOT|52=20250530-04:49:59.061|56=1001|58=*** SERVER HELLO ***|10=150|
20250530-04:49:59: Reject sent for message 65: Required tag missing, field=146
20250530-04:50:01: Sent test request TEST
20250530-04:50:04: Rejecting invalid message: quickfix.FieldException: Required tag missing, field=146: 8=FIX.4.4|9=76|35=R|34=67|49=SPOT|52=20250530-04:50:04.061|56=1001|58=*** SERVER HELLO ***|10=134|
20250530-04:50:04: Reject sent for message 67: Required tag missing, field=146
20250530-04:50:09: Rejecting invalid message: quickfix.FieldException: Required tag missing, field=146: 8=FIX.4.4|9=76|35=R|34=68|49=SPOT|52=20250530-04:50:09.061|56=1001|58=*** SERVER HELLO ***|10=140|
20250530-04:50:09: Reject sent for message 68: Required tag missing, field=146
20250530-04:50:09: Sent test request TEST
20250530-04:50:14: Rejecting invalid message: quickfix.FieldException: Required tag missing, field=146: 8=FIX.4.4|9=76|35=R|34=70|49=SPOT|52=20250530-04:50:14.061|56=1001|58=*** SERVER HELLO ***|10=129|
20250530-04:50:14: Reject sent for message 70: Required tag missing, field=146
20250530-04:50:17: Sent test request TEST
20250530-04:50:19: Rejecting invalid message: quickfix.FieldException: Required tag missing, field=146: 8=FIX.4.4|9=76|35=R|34=72|49=SPOT|52=20250530-04:50:19.061|56=1001|58=*** SERVER HELLO ***|10=136|
20250530-04:50:19: Reject sent for message 72: Required tag missing, field=146
20250530-04:50:24: Rejecting invalid message: quickfix.FieldException: Required tag missing, field=146: 8=FIX.4.4|9=76|35=R|34=73|49=SPOT|52=20250530-04:50:24.061|56=1001|58=*** SERVER HELLO ***|10=133|
20250530-04:50:24: Reject sent for message 73: Required tag missing, field=146
20250530-04:50:25: Sent test request TEST
20250530-04:50:29: Rejecting invalid message: quickfix.FieldException: Required tag missing, field=146: 8=FIX.4.4|9=76|35=R|34=75|49=SPOT|52=20250530-04:50:29.061|56=1001|58=*** SERVER HELLO ***|10=140|
20250530-04:50:29: Reject sent for message 75: Required tag missing, field=146
20250530-04:50:33: Sent test request TEST
20250530-04:50:34: Rejecting invalid message: quickfix.FieldException: Required tag missing, field=146: 8=FIX.4.4|9=76|35=R|34=77|49=SPOT|52=20250530-04:50:34.061|56=1001|58=*** SERVER HELLO ***|10=138|
20250530-04:50:34: Reject sent for message 77: Required tag missing, field=146
20250530-04:50:39: Rejecting invalid message: quickfix.FieldException: Required tag missing, field=146: 8=FIX.4.4|9=76|35=R|34=78|49=SPOT|52=20250530-04:50:39.061|56=1001|58=*** SERVER HELLO ***|10=144|
20250530-04:50:39: Reject sent for message 78: Required tag missing, field=146
20250530-04:50:41: Sent test request TEST
20250530-04:50:44: Rejecting invalid message: quickfix.FieldException: Required tag missing, field=146: 8=FIX.4.4|9=76|35=R|34=80|49=SPOT|52=20250530-04:50:44.061|56=1001|58=*** SERVER HELLO ***|10=133|
20250530-04:50:44: Reject sent for message 80: Required tag missing, field=146
20250530-04:50:49: Rejecting invalid message: quickfix.FieldException: Required tag missing, field=146: 8=FIX.4.4|9=76|35=R|34=81|49=SPOT|52=20250530-04:50:49.061|56=1001|58=*** SERVER HELLO ***|10=139|
20250530-04:50:49: Reject sent for message 81: Required tag missing, field=146
20250530-04:50:49: Sent test request TEST
20250530-04:50:54: Rejecting invalid message: quickfix.FieldException: Required tag missing, field=146: 8=FIX.4.4|9=76|35=R|34=83|49=SPOT|52=20250530-04:50:54.061|56=1001|58=*** SERVER HELLO ***|10=137|
20250530-04:50:54: Reject sent for message 83: Required tag missing, field=146
20250530-04:50:57: Sent test request TEST
20250530-04:50:59: Rejecting invalid message: quickfix.FieldException: Required tag missing, field=146: 8=FIX.4.4|9=76|35=R|34=85|49=SPOT|52=20250530-04:50:59.061|56=1001|58=*** SERVER HELLO ***|10=144|
20250530-04:50:59: Reject sent for message 85: Required tag missing, field=146
20250530-04:51:04: Rejecting invalid message: quickfix.FieldException: Required tag missing, field=146: 8=FIX.4.4|9=76|35=R|34=86|49=SPOT|52=20250530-04:51:04.061|56=1001|58=*** SERVER HELLO ***|10=136|
20250530-04:51:04: Reject sent for message 86: Required tag missing, field=146
20250530-04:51:05: Sent test request TEST
20250530-04:51:09: Rejecting invalid message: quickfix.FieldException: Required tag missing, field=146: 8=FIX.4.4|9=76|35=R|34=88|49=SPOT|52=20250530-04:51:09.061|56=1001|58=*** SERVER HELLO ***|10=143|
20250530-04:51:09: Reject sent for message 88: Required tag missing, field=146
20250530-04:51:13: Sent test request TEST
20250530-04:51:14: Rejecting invalid message: quickfix.FieldException: Required tag missing, field=146: 8=FIX.4.4|9=76|35=R|34=90|49=SPOT|52=20250530-04:51:14.061|56=1001|58=*** SERVER HELLO ***|10=132|
20250530-04:51:14: Reject sent for message 90: Required tag missing, field=146
20250530-04:51:19: Rejecting invalid message: quickfix.FieldException: Required tag missing, field=146: 8=FIX.4.4|9=76|35=R|34=91|49=SPOT|52=20250530-04:51:19.061|56=1001|58=*** SERVER HELLO ***|10=138|
20250530-04:51:19: Reject sent for message 91: Required tag missing, field=146
20250530-04:51:21: Sent test request TEST
20250530-04:51:24: Rejecting invalid message: quickfix.FieldException: Required tag missing, field=146: 8=FIX.4.4|9=76|35=R|34=93|49=SPOT|52=20250530-04:51:24.061|56=1001|58=*** SERVER HELLO ***|10=136|
20250530-04:51:24: Reject sent for message 93: Required tag missing, field=146
20250530-04:51:29: Rejecting invalid message: quickfix.FieldException: Required tag missing, field=146: 8=FIX.4.4|9=76|35=R|34=94|49=SPOT|52=20250530-04:51:29.061|56=1001|58=*** SERVER HELLO ***|10=142|
20250530-04:51:29: Reject sent for message 94: Required tag missing, field=146
20250530-04:51:29: Sent test request TEST
20250530-04:51:34: Rejecting invalid message: quickfix.FieldException: Required tag missing, field=146: 8=FIX.4.4|9=76|35=R|34=96|49=SPOT|52=20250530-04:51:34.061|56=1001|58=*** SERVER HELLO ***|10=140|
20250530-04:51:34: Reject sent for message 96: Required tag missing, field=146
20250530-05:28:49: Session FIX.4.4:1001->SPOT schedule is daily, 00:00:00-UTC - 00:00:00-UTC
20250530-05:28:49: Created session: FIX.4.4:1001->SPOT
20250530-05:28:49: Configured socket addresses for session: [/0.0.0.0:9000]
20250530-05:28:49: MINA session created: local=/127.0.0.1:47438, class org.apache.mina.transport.socket.nio.NioSocketSession, remote=/127.0.0.1:9000
20250530-05:28:50: Initiated logon request
20250530-05:28:50: Logon contains ResetSeqNumFlag=Y, resetting sequence numbers to 1
20250530-05:28:50: Received logon
20250530-05:28:55: Rejecting invalid message: quickfix.FieldException: Required tag missing, field=146: 8=FIX.4.4|9=75|35=R|34=2|49=SPOT|52=20250530-05:28:55.616|56=1001|58=*** SERVER HELLO ***|10=092|
20250530-05:28:55: Reject sent for message 2: Required tag missing, field=146
20250530-05:28:58: Sent test request TEST
20250530-05:29:00: Rejecting invalid message: quickfix.FieldException: Required tag missing, field=146: 8=FIX.4.4|9=75|35=R|34=4|49=SPOT|52=20250530-05:29:00.614|56=1001|58=*** SERVER HELLO ***|10=083|
20250530-05:29:00: Reject sent for message 4: Required tag missing, field=146
20250530-05:29:05: Rejecting invalid message: quickfix.FieldException: Required tag missing, field=146: 8=FIX.4.4|9=75|35=R|34=5|49=SPOT|52=20250530-05:29:05.614|56=1001|58=*** SERVER HELLO ***|10=089|
20250530-05:29:05: Reject sent for message 5: Required tag missing, field=146
20250530-05:29:06: Sent test request TEST
